{
  "contractName": "Seedsale",
  "abi": [
    {
      "inputs": [
        {
          "internalType": "uint256",
          "name": "_tgeTime",
          "type": "uint256"
        }
      ],
      "stateMutability": "nonpayable",
      "type": "constructor"
    },
    {
      "anonymous": false,
      "inputs": [
        {
          "indexed": true,
          "internalType": "address",
          "name": "previousOwner",
          "type": "address"
        },
        {
          "indexed": true,
          "internalType": "address",
          "name": "newOwner",
          "type": "address"
        }
      ],
      "name": "OwnershipTransferred",
      "type": "event"
    },
    {
      "inputs": [
        {
          "internalType": "address",
          "name": "",
          "type": "address"
        }
      ],
      "name": "buyTokens",
      "outputs": [
        {
          "internalType": "uint256",
          "name": "",
          "type": "uint256"
        }
      ],
      "stateMutability": "view",
      "type": "function"
    },
    {
      "inputs": [
        {
          "internalType": "address",
          "name": "",
          "type": "address"
        }
      ],
      "name": "claimedTokens",
      "outputs": [
        {
          "internalType": "uint256",
          "name": "",
          "type": "uint256"
        }
      ],
      "stateMutability": "view",
      "type": "function"
    },
    {
      "inputs": [],
      "name": "duration",
      "outputs": [
        {
          "internalType": "uint256",
          "name": "",
          "type": "uint256"
        }
      ],
      "stateMutability": "view",
      "type": "function"
    },
    {
      "inputs": [],
      "name": "owner",
      "outputs": [
        {
          "internalType": "address",
          "name": "",
          "type": "address"
        }
      ],
      "stateMutability": "view",
      "type": "function"
    },
    {
      "inputs": [],
      "name": "price",
      "outputs": [
        {
          "internalType": "uint256",
          "name": "",
          "type": "uint256"
        }
      ],
      "stateMutability": "view",
      "type": "function"
    },
    {
      "inputs": [],
      "name": "renounceOwnership",
      "outputs": [],
      "stateMutability": "nonpayable",
      "type": "function"
    },
    {
      "inputs": [],
      "name": "tgeAmount",
      "outputs": [
        {
          "internalType": "uint256",
          "name": "",
          "type": "uint256"
        }
      ],
      "stateMutability": "view",
      "type": "function"
    },
    {
      "inputs": [],
      "name": "tgeTime",
      "outputs": [
        {
          "internalType": "uint256",
          "name": "",
          "type": "uint256"
        }
      ],
      "stateMutability": "view",
      "type": "function"
    },
    {
      "inputs": [
        {
          "internalType": "address",
          "name": "newOwner",
          "type": "address"
        }
      ],
      "name": "transferOwnership",
      "outputs": [],
      "stateMutability": "nonpayable",
      "type": "function"
    },
    {
      "inputs": [],
      "name": "getClaimable",
      "outputs": [
        {
          "internalType": "uint256",
          "name": "",
          "type": "uint256"
        }
      ],
      "stateMutability": "view",
      "type": "function"
    },
    {
      "inputs": [],
      "name": "claim",
      "outputs": [],
      "stateMutability": "nonpayable",
      "type": "function"
    },
    {
      "inputs": [
        {
          "internalType": "uint256",
          "name": "_price",
          "type": "uint256"
        }
      ],
      "name": "setPrice",
      "outputs": [],
      "stateMutability": "nonpayable",
      "type": "function"
    },
    {
      "inputs": [
        {
          "internalType": "uint256",
          "name": "_tgeAmount",
          "type": "uint256"
        },
        {
          "internalType": "uint256",
          "name": "_tgeTime",
          "type": "uint256"
        },
        {
          "internalType": "uint256",
          "name": "_duration",
          "type": "uint256"
        }
      ],
      "name": "setVesting",
      "outputs": [],
      "stateMutability": "nonpayable",
      "type": "function"
    },
    {
      "inputs": [
        {
          "internalType": "address",
          "name": "_kata",
          "type": "address"
        }
      ],
      "name": "setKataToken",
      "outputs": [],
      "stateMutability": "nonpayable",
      "type": "function"
    },
    {
      "inputs": [
        {
          "internalType": "address[]",
          "name": "addrs",
          "type": "address[]"
        },
        {
          "internalType": "uint256[]",
          "name": "amounts",
          "type": "uint256[]"
        }
      ],
      "name": "registerMember",
      "outputs": [],
      "stateMutability": "nonpayable",
      "type": "function"
    }
  ],
  "bytecode": "0x60806040526103e8600255603260055562ed4e006007553480156200002357600080fd5b50604051620019803803806200198083398181016040528101906200004991906200015a565b620000696200005d6200007760201b60201c565b6200007f60201b60201c565b8060068190555050620001aa565b600033905090565b60008060009054906101000a900473ffffffffffffffffffffffffffffffffffffffff169050816000806101000a81548173ffffffffffffffffffffffffffffffffffffffff021916908373ffffffffffffffffffffffffffffffffffffffff1602179055508173ffffffffffffffffffffffffffffffffffffffff168173ffffffffffffffffffffffffffffffffffffffff167f8be0079c531659141344cd1fd0a4f28419497f9722a3daafe3b4186f6b6457e060405160405180910390a35050565b600081519050620001548162000190565b92915050565b6000602082840312156200016d57600080fd5b60006200017d8482850162000143565b91505092915050565b6000819050919050565b6200019b8162000186565b8114620001a757600080fd5b50565b6117c680620001ba6000396000f3fe608060405234801561001057600080fd5b50600436106100f55760003560e01c806391b7f5ed11610097578063b573adda11610066578063b573adda14610228578063ec8ac4d814610244578063ee28b74414610274578063f2fde38b14610292576100f5565b806391b7f5ed146101a25780639811b1e1146101be578063a035b1fe146101da578063a960c65f146101f8576100f5565b80634e71d92d116100d35780634e71d92d14610154578063715018a61461015e5780637910d9fd146101685780638da5cb5b14610184576100f5565b80630fb5a6b4146100fa5780631091827a146101185780633163e3a814610136575b600080fd5b6101026102ae565b60405161010f9190611463565b60405180910390f35b6101206102b4565b60405161012d9190611463565b60405180910390f35b61013e6102ba565b60405161014b9190611463565b60405180910390f35b61015c6102c0565b005b6101666105d6565b005b610182600480360381019061017d9190611005565b61065e565b005b61018c61071e565b604051610199919061133f565b60405180910390f35b6101bc60048036038101906101b791906110c3565b610747565b005b6101d860048036038101906101d3919061102e565b6107cd565b005b6101e26109ff565b6040516101ef9190611463565b60405180910390f35b610212600480360381019061020d9190611005565b610a05565b60405161021f9190611463565b60405180910390f35b610242600480360381019061023d91906110ec565b610a1d565b005b61025e60048036038101906102599190611005565b610ab3565b60405161026b9190611463565b60405180910390f35b61027c610acb565b6040516102899190611463565b60405180910390f35b6102ac60048036038101906102a79190611005565b610cd6565b005b60075481565b60055481565b60065481565b6006544211610304576040517f08c379a00000000000000000000000000000000000000000000000000000000081526004016102fb90611383565b60405180910390fd5b6000600360003373ffffffffffffffffffffffffffffffffffffffff1673ffffffffffffffffffffffffffffffffffffffff1681526020019081526020016000205411610386576040517f08c379a000000000000000000000000000000000000000000000000000000000815260040161037d90611443565b60405180910390fd5b600460003373ffffffffffffffffffffffffffffffffffffffff1673ffffffffffffffffffffffffffffffffffffffff16815260200190815260200160002054600360003373ffffffffffffffffffffffffffffffffffffffff1673ffffffffffffffffffffffffffffffffffffffff1681526020019081526020016000205411610446576040517f08c379a000000000000000000000000000000000000000000000000000000000815260040161043d906113e3565b60405180910390fd5b6000610450610acb565b905060008111610495576040517f08c379a000000000000000000000000000000000000000000000000000000000815260040161048c90611403565b60405180910390fd5b600160009054906101000a900473ffffffffffffffffffffffffffffffffffffffff1673ffffffffffffffffffffffffffffffffffffffff1663a9059cbb33836040518363ffffffff1660e01b81526004016104f292919061135a565b602060405180830381600087803b15801561050c57600080fd5b505af1158015610520573d6000803e3d6000fd5b505050506040513d601f19601f82011682018060405250810190610544919061109a565b5080600460003373ffffffffffffffffffffffffffffffffffffffff1673ffffffffffffffffffffffffffffffffffffffff168152602001908152602001600020546105909190611518565b600460003373ffffffffffffffffffffffffffffffffffffffff1673ffffffffffffffffffffffffffffffffffffffff1681526020019081526020016000208190555050565b6105de610dce565b73ffffffffffffffffffffffffffffffffffffffff166105fc61071e565b73ffffffffffffffffffffffffffffffffffffffff1614610652576040517f08c379a000000000000000000000000000000000000000000000000000000000815260040161064990611423565b60405180910390fd5b61065c6000610dd6565b565b610666610dce565b73ffffffffffffffffffffffffffffffffffffffff1661068461071e565b73ffffffffffffffffffffffffffffffffffffffff16146106da576040517f08c379a00000000000000000000000000000000000000000000000000000000081526004016106d190611423565b60405180910390fd5b80600160006101000a81548173ffffffffffffffffffffffffffffffffffffffff021916908373ffffffffffffffffffffffffffffffffffffffff16021790555050565b60008060009054906101000a900473ffffffffffffffffffffffffffffffffffffffff16905090565b61074f610dce565b73ffffffffffffffffffffffffffffffffffffffff1661076d61071e565b73ffffffffffffffffffffffffffffffffffffffff16146107c3576040517f08c379a00000000000000000000000000000000000000000000000000000000081526004016107ba90611423565b60405180910390fd5b8060028190555050565b6107d5610dce565b73ffffffffffffffffffffffffffffffffffffffff166107f361071e565b73ffffffffffffffffffffffffffffffffffffffff1614610849576040517f08c379a000000000000000000000000000000000000000000000000000000000815260040161084090611423565b60405180910390fd5b805182511461088d576040517f08c379a0000000000000000000000000000000000000000000000000000000008152600401610884906113c3565b60405180910390fd5b60005b82518110156109fa578181815181106108d2577f4e487b7100000000000000000000000000000000000000000000000000000000600052603260045260246000fd5b602002602001015160036000858481518110610917577f4e487b7100000000000000000000000000000000000000000000000000000000600052603260045260246000fd5b602002602001015173ffffffffffffffffffffffffffffffffffffffff1673ffffffffffffffffffffffffffffffffffffffff168152602001908152602001600020546109649190611518565b600360008584815181106109a1577f4e487b7100000000000000000000000000000000000000000000000000000000600052603260045260246000fd5b602002602001015173ffffffffffffffffffffffffffffffffffffffff1673ffffffffffffffffffffffffffffffffffffffff1681526020019081526020016000208190555080806109f290611675565b915050610890565b505050565b60025481565b60046020528060005260406000206000915090505481565b610a25610dce565b73ffffffffffffffffffffffffffffffffffffffff16610a4361071e565b73ffffffffffffffffffffffffffffffffffffffff1614610a99576040517f08c379a0000000000000000000000000000000000000000000000000000000008152600401610a9090611423565b60405180910390fd5b826005819055508160068190555080600781905550505050565b60036020528060005260406000206000915090505481565b6000600654421015610ae05760009050610cd3565b6000600360003373ffffffffffffffffffffffffffffffffffffffff1673ffffffffffffffffffffffffffffffffffffffff1681526020019081526020016000205411610b305760009050610cd3565b600460003373ffffffffffffffffffffffffffffffffffffffff1673ffffffffffffffffffffffffffffffffffffffff16815260200190815260200160002054600360003373ffffffffffffffffffffffffffffffffffffffff1673ffffffffffffffffffffffffffffffffffffffff1681526020019081526020016000205411610bbe5760009050610cd3565b600060065442610bce91906115f9565b9050600754811115610be05760075490505b60006005546064610bf191906115f9565b905060006007548383610c04919061159f565b610c0e919061156e565b905060055481610c1e9190611518565b90506000606482600360003373ffffffffffffffffffffffffffffffffffffffff1673ffffffffffffffffffffffffffffffffffffffff16815260200190815260200160002054610c6f919061159f565b610c79919061156e565b90506000600460003373ffffffffffffffffffffffffffffffffffffffff1673ffffffffffffffffffffffffffffffffffffffff1681526020019081526020016000205482610cc891906115f9565b905080955050505050505b90565b610cde610dce565b73ffffffffffffffffffffffffffffffffffffffff16610cfc61071e565b73ffffffffffffffffffffffffffffffffffffffff1614610d52576040517f08c379a0000000000000000000000000000000000000000000000000000000008152600401610d4990611423565b60405180910390fd5b600073ffffffffffffffffffffffffffffffffffffffff168173ffffffffffffffffffffffffffffffffffffffff161415610dc2576040517f08c379a0000000000000000000000000000000000000000000000000000000008152600401610db9906113a3565b60405180910390fd5b610dcb81610dd6565b50565b600033905090565b60008060009054906101000a900473ffffffffffffffffffffffffffffffffffffffff169050816000806101000a81548173ffffffffffffffffffffffffffffffffffffffff021916908373ffffffffffffffffffffffffffffffffffffffff1602179055508173ffffffffffffffffffffffffffffffffffffffff168173ffffffffffffffffffffffffffffffffffffffff167f8be0079c531659141344cd1fd0a4f28419497f9722a3daafe3b4186f6b6457e060405160405180910390a35050565b6000610ead610ea8846114af565b61147e565b90508083825260208201905082856020860282011115610ecc57600080fd5b60005b85811015610efc5781610ee28882610f72565b845260208401935060208301925050600181019050610ecf565b5050509392505050565b6000610f19610f14846114db565b61147e565b90508083825260208201905082856020860282011115610f3857600080fd5b60005b85811015610f685781610f4e8882610ff0565b845260208401935060208301925050600181019050610f3b565b5050509392505050565b600081359050610f818161174b565b92915050565b600082601f830112610f9857600080fd5b8135610fa8848260208601610e9a565b91505092915050565b600082601f830112610fc257600080fd5b8135610fd2848260208601610f06565b91505092915050565b600081519050610fea81611762565b92915050565b600081359050610fff81611779565b92915050565b60006020828403121561101757600080fd5b600061102584828501610f72565b91505092915050565b6000806040838503121561104157600080fd5b600083013567ffffffffffffffff81111561105b57600080fd5b61106785828601610f87565b925050602083013567ffffffffffffffff81111561108457600080fd5b61109085828601610fb1565b9150509250929050565b6000602082840312156110ac57600080fd5b60006110ba84828501610fdb565b91505092915050565b6000602082840312156110d557600080fd5b60006110e384828501610ff0565b91505092915050565b60008060006060848603121561110157600080fd5b600061110f86828701610ff0565b935050602061112086828701610ff0565b925050604061113186828701610ff0565b9150509250925092565b6111448161162d565b82525050565b6000611157601583611507565b91507f436c61696d206e6f7420737461727465642079657400000000000000000000006000830152602082019050919050565b6000611197602683611507565b91507f4f776e61626c653a206e6577206f776e657220697320746865207a65726f206160008301527f64647265737300000000000000000000000000000000000000000000000000006020830152604082019050919050565b60006111fd602083611507565b91507f54776f206172726179206861766520646966666572656e74206c656e677468736000830152602082019050919050565b600061123d601783611507565b91507f596f7520616c726561647920636c61696d656420616c6c0000000000000000006000830152602082019050919050565b600061127d601183611507565b91507f4e6f20746f6b656e20746f20636c61696d0000000000000000000000000000006000830152602082019050919050565b60006112bd602083611507565b91507f4f776e61626c653a2063616c6c6572206973206e6f7420746865206f776e65726000830152602082019050919050565b60006112fd601283611507565b91507f4e6f20746f6b656e2070757263616873656400000000000000000000000000006000830152602082019050919050565b6113398161166b565b82525050565b6000602082019050611354600083018461113b565b92915050565b600060408201905061136f600083018561113b565b61137c6020830184611330565b9392505050565b6000602082019050818103600083015261139c8161114a565b9050919050565b600060208201905081810360008301526113bc8161118a565b9050919050565b600060208201905081810360008301526113dc816111f0565b9050919050565b600060208201905081810360008301526113fc81611230565b9050919050565b6000602082019050818103600083015261141c81611270565b9050919050565b6000602082019050818103600083015261143c816112b0565b9050919050565b6000602082019050818103600083015261145c816112f0565b9050919050565b60006020820190506114786000830184611330565b92915050565b6000604051905081810181811067ffffffffffffffff821117156114a5576114a461171c565b5b8060405250919050565b600067ffffffffffffffff8211156114ca576114c961171c565b5b602082029050602081019050919050565b600067ffffffffffffffff8211156114f6576114f561171c565b5b602082029050602081019050919050565b600082825260208201905092915050565b60006115238261166b565b915061152e8361166b565b9250827fffffffffffffffffffffffffffffffffffffffffffffffffffffffffffffffff03821115611563576115626116be565b5b828201905092915050565b60006115798261166b565b91506115848361166b565b925082611594576115936116ed565b5b828204905092915050565b60006115aa8261166b565b91506115b58361166b565b9250817fffffffffffffffffffffffffffffffffffffffffffffffffffffffffffffffff04831182151516156115ee576115ed6116be565b5b828202905092915050565b60006116048261166b565b915061160f8361166b565b925082821015611622576116216116be565b5b828203905092915050565b60006116388261164b565b9050919050565b60008115159050919050565b600073ffffffffffffffffffffffffffffffffffffffff82169050919050565b6000819050919050565b60006116808261166b565b91507fffffffffffffffffffffffffffffffffffffffffffffffffffffffffffffffff8214156116b3576116b26116be565b5b600182019050919050565b7f4e487b7100000000000000000000000000000000000000000000000000000000600052601160045260246000fd5b7f4e487b7100000000000000000000000000000000000000000000000000000000600052601260045260246000fd5b7f4e487b7100000000000000000000000000000000000000000000000000000000600052604160045260246000fd5b6117548161162d565b811461175f57600080fd5b50565b61176b8161163f565b811461177657600080fd5b50565b6117828161166b565b811461178d57600080fd5b5056fea2646970667358221220ac4abb9015682faf07f201bda0bf8852bd7961d07b8fafb082e1ced4f95ae5ec64736f6c63430008000033",
  "immutableReferences": {},
  "source": "// SPDX-License-Identifier: MIT\r\npragma solidity ^0.8.0;\r\n\r\nimport '@openzeppelin/contracts/token/ERC20/IERC20.sol';\r\nimport '@openzeppelin/contracts/access/Ownable.sol';\r\n\r\ncontract Seedsale is Ownable {\r\n\r\n    IERC20 kataToken;\r\n\r\n    uint256 public price = 1000;       // 1 ETH = 1000 $KATA\r\n\r\n    mapping(address => uint256) public buyTokens;\r\n    mapping(address => uint256) public claimedTokens;\r\n\r\n    uint256 public tgeAmount = 50;\r\n    uint256 public tgeTime;\r\n    uint256 public duration = 60 * 60 * 24 * 30 * 6;    // 6 months (180 days)\r\n\r\n    constructor(uint256 _tgeTime) {\r\n        tgeTime = _tgeTime;\r\n    }\r\n\r\n    function getClaimable() public view returns(uint256) {\r\n        if (block.timestamp < tgeTime) return 0;\r\n        if (buyTokens[msg.sender] <= 0) return 0;\r\n        if (buyTokens[msg.sender] <= claimedTokens[msg.sender]) return 0;\r\n\r\n        uint256 timeElapsed = block.timestamp - tgeTime;\r\n\r\n        if (timeElapsed > duration)\r\n            timeElapsed = duration;\r\n        \r\n        uint256 _tge = 100 - tgeAmount;\r\n        uint256 unlockedPercent = _tge * timeElapsed / duration;\r\n        unlockedPercent = unlockedPercent + tgeAmount;\r\n\r\n        uint256 unlockedAmount = buyTokens[msg.sender] * unlockedPercent / 100;\r\n\r\n        uint256 claimable = unlockedAmount - claimedTokens[msg.sender];\r\n\r\n        return claimable;\r\n    }\r\n    \r\n    function claim() external {\r\n        require(block.timestamp > tgeTime, \"Claim not started yet\");\r\n        require(buyTokens[msg.sender] > 0, \"No token purcahsed\");\r\n        require(buyTokens[msg.sender] > claimedTokens[msg.sender], \"You already claimed all\");\r\n\r\n        uint256 claimable = getClaimable();\r\n\r\n        require (claimable > 0, \"No token to claim\");\r\n\r\n        kataToken.transfer(msg.sender, claimable);\r\n\r\n        claimedTokens[msg.sender] = claimedTokens[msg.sender] + claimable;\r\n    }\r\n\r\n    function setPrice(uint256 _price) external onlyOwner {\r\n        price = _price;\r\n    }\r\n\r\n    function setVesting(uint256 _tgeAmount, uint256 _tgeTime, uint256 _duration) external onlyOwner {\r\n        tgeAmount = _tgeAmount;\r\n        tgeTime = _tgeTime;\r\n        duration = _duration;\r\n    }\r\n\r\n    function setKataToken(address _kata) external onlyOwner {\r\n        kataToken = IERC20(_kata);\r\n    }\r\n\r\n    function registerMember(address[] memory addrs, uint256[] memory amounts) external onlyOwner {\r\n        require(addrs.length == amounts.length, \"Two array have different lengths\");\r\n        for (uint256 i = 0; i < addrs.length; i++){\r\n            buyTokens[addrs[i]] = buyTokens[addrs[i]] + amounts[i];\r\n    }\r\n  }\r\n}",
  "sourcePath": "E:\\work\\blockchain\\katanainu\\work\\seedsale-contract\\contracts\\Seedsale.sol",
  "compiler": {
    "name": "solc",
    "version": "0.8.0+commit.c7dfd78e.Emscripten.clang"
  },
  "schemaVersion": "3.4.2",
  "updatedAt": "2021-12-15T20:55:58.885Z",
  "devdoc": {
    "kind": "dev",
    "methods": {
      "owner()": {
        "details": "Returns the address of the current owner."
      },
      "renounceOwnership()": {
        "details": "Leaves the contract without owner. It will not be possible to call `onlyOwner` functions anymore. Can only be called by the current owner. NOTE: Renouncing ownership will leave the contract without an owner, thereby removing any functionality that is only available to the owner."
      },
      "transferOwnership(address)": {
        "details": "Transfers ownership of the contract to a new account (`newOwner`). Can only be called by the current owner."
      }
    },
    "version": 1
  },
  "userdoc": {
    "kind": "user",
    "methods": {},
    "version": 1
  }
}