{
  "contractName": "Seedsale",
  "abi": [
    {
      "inputs": [
        {
          "internalType": "uint256",
          "name": "_tgeTime",
          "type": "uint256"
        }
      ],
      "stateMutability": "nonpayable",
      "type": "constructor"
    },
    {
      "anonymous": false,
      "inputs": [
        {
          "indexed": true,
          "internalType": "address",
          "name": "previousOwner",
          "type": "address"
        },
        {
          "indexed": true,
          "internalType": "address",
          "name": "newOwner",
          "type": "address"
        }
      ],
      "name": "OwnershipTransferred",
      "type": "event"
    },
    {
      "inputs": [
        {
          "internalType": "address",
          "name": "",
          "type": "address"
        }
      ],
      "name": "buyTokens",
      "outputs": [
        {
          "internalType": "uint256",
          "name": "",
          "type": "uint256"
        }
      ],
      "stateMutability": "view",
      "type": "function"
    },
    {
      "inputs": [
        {
          "internalType": "address",
          "name": "",
          "type": "address"
        }
      ],
      "name": "claimedTokens",
      "outputs": [
        {
          "internalType": "uint256",
          "name": "",
          "type": "uint256"
        }
      ],
      "stateMutability": "view",
      "type": "function"
    },
    {
      "inputs": [],
      "name": "duration",
      "outputs": [
        {
          "internalType": "uint256",
          "name": "",
          "type": "uint256"
        }
      ],
      "stateMutability": "view",
      "type": "function"
    },
    {
      "inputs": [],
      "name": "owner",
      "outputs": [
        {
          "internalType": "address",
          "name": "",
          "type": "address"
        }
      ],
      "stateMutability": "view",
      "type": "function"
    },
    {
      "inputs": [],
      "name": "price",
      "outputs": [
        {
          "internalType": "uint256",
          "name": "",
          "type": "uint256"
        }
      ],
      "stateMutability": "view",
      "type": "function"
    },
    {
      "inputs": [],
      "name": "renounceOwnership",
      "outputs": [],
      "stateMutability": "nonpayable",
      "type": "function"
    },
    {
      "inputs": [],
      "name": "tgeAmount",
      "outputs": [
        {
          "internalType": "uint256",
          "name": "",
          "type": "uint256"
        }
      ],
      "stateMutability": "view",
      "type": "function"
    },
    {
      "inputs": [],
      "name": "tgeTime",
      "outputs": [
        {
          "internalType": "uint256",
          "name": "",
          "type": "uint256"
        }
      ],
      "stateMutability": "view",
      "type": "function"
    },
    {
      "inputs": [
        {
          "internalType": "address",
          "name": "newOwner",
          "type": "address"
        }
      ],
      "name": "transferOwnership",
      "outputs": [],
      "stateMutability": "nonpayable",
      "type": "function"
    },
    {
      "inputs": [],
      "name": "getClaimable",
      "outputs": [
        {
          "internalType": "uint256",
          "name": "",
          "type": "uint256"
        }
      ],
      "stateMutability": "view",
      "type": "function"
    },
    {
      "inputs": [],
      "name": "claim",
      "outputs": [],
      "stateMutability": "nonpayable",
      "type": "function"
    },
    {
      "inputs": [],
      "name": "withdrawETH",
      "outputs": [],
      "stateMutability": "nonpayable",
      "type": "function"
    },
    {
      "inputs": [
        {
          "internalType": "uint256",
          "name": "_price",
          "type": "uint256"
        }
      ],
      "name": "setPrice",
      "outputs": [],
      "stateMutability": "nonpayable",
      "type": "function"
    },
    {
      "inputs": [
        {
          "internalType": "uint256",
          "name": "_tgeAmount",
          "type": "uint256"
        },
        {
          "internalType": "uint256",
          "name": "_tgeTime",
          "type": "uint256"
        },
        {
          "internalType": "uint256",
          "name": "_duration",
          "type": "uint256"
        }
      ],
      "name": "setVesting",
      "outputs": [],
      "stateMutability": "nonpayable",
      "type": "function"
    },
    {
      "inputs": [
        {
          "internalType": "address",
          "name": "_kata",
          "type": "address"
        }
      ],
      "name": "setKataToken",
      "outputs": [],
      "stateMutability": "nonpayable",
      "type": "function"
    },
    {
      "inputs": [
        {
          "internalType": "address[]",
          "name": "addrs",
          "type": "address[]"
        },
        {
          "internalType": "uint256[]",
          "name": "amount",
          "type": "uint256[]"
        }
      ],
      "name": "registerMember",
      "outputs": [],
      "stateMutability": "nonpayable",
      "type": "function"
    }
  ],
  "bytecode": "0x60806040526103e8600255603260055562ed4e006007553480156200002357600080fd5b50604051620019bc380380620019bc83398181016040528101906200004991906200015a565b620000696200005d6200007760201b60201c565b6200007f60201b60201c565b8060068190555050620001aa565b600033905090565b60008060009054906101000a900473ffffffffffffffffffffffffffffffffffffffff169050816000806101000a81548173ffffffffffffffffffffffffffffffffffffffff021916908373ffffffffffffffffffffffffffffffffffffffff1602179055508173ffffffffffffffffffffffffffffffffffffffff168173ffffffffffffffffffffffffffffffffffffffff167f8be0079c531659141344cd1fd0a4f28419497f9722a3daafe3b4186f6b6457e060405160405180910390a35050565b600081519050620001548162000190565b92915050565b6000602082840312156200016d57600080fd5b60006200017d8482850162000143565b91505092915050565b6000819050919050565b6200019b8162000186565b8114620001a757600080fd5b50565b61180280620001ba6000396000f3fe608060405234801561001057600080fd5b50600436106101005760003560e01c80639811b1e111610097578063e086e5ec11610066578063e086e5ec1461024f578063ec8ac4d814610259578063ee28b74414610289578063f2fde38b146102a757610100565b80639811b1e1146101c9578063a035b1fe146101e5578063a960c65f14610203578063b573adda1461023357610100565b8063715018a6116100d3578063715018a6146101695780637910d9fd146101735780638da5cb5b1461018f57806391b7f5ed146101ad57610100565b80630fb5a6b4146101055780631091827a146101235780633163e3a8146101415780634e71d92d1461015f575b600080fd5b61010d6102c3565b60405161011a919061149f565b60405180910390f35b61012b6102c9565b604051610138919061149f565b60405180910390f35b6101496102cf565b604051610156919061149f565b60405180910390f35b6101676102d5565b005b6101716105eb565b005b61018d600480360381019061018891906110a1565b610673565b005b610197610733565b6040516101a4919061139b565b60405180910390f35b6101c760048036038101906101c2919061115f565b61075c565b005b6101e360048036038101906101de91906110ca565b6107e2565b005b6101ed6109d0565b6040516101fa919061149f565b60405180910390f35b61021d600480360381019061021891906110a1565b6109d6565b60405161022a919061149f565b60405180910390f35b61024d60048036038101906102489190611188565b6109ee565b005b610257610a84565b005b610273600480360381019061026e91906110a1565b610b4f565b604051610280919061149f565b60405180910390f35b610291610b67565b60405161029e919061149f565b60405180910390f35b6102c160048036038101906102bc91906110a1565b610d72565b005b60075481565b60055481565b60065481565b6006544211610319576040517f08c379a0000000000000000000000000000000000000000000000000000000008152600401610310906113df565b60405180910390fd5b6000600360003373ffffffffffffffffffffffffffffffffffffffff1673ffffffffffffffffffffffffffffffffffffffff168152602001908152602001600020541161039b576040517f08c379a00000000000000000000000000000000000000000000000000000000081526004016103929061147f565b60405180910390fd5b600460003373ffffffffffffffffffffffffffffffffffffffff1673ffffffffffffffffffffffffffffffffffffffff16815260200190815260200160002054600360003373ffffffffffffffffffffffffffffffffffffffff1673ffffffffffffffffffffffffffffffffffffffff168152602001908152602001600020541161045b576040517f08c379a00000000000000000000000000000000000000000000000000000000081526004016104529061141f565b60405180910390fd5b6000610465610b67565b9050600081116104aa576040517f08c379a00000000000000000000000000000000000000000000000000000000081526004016104a19061143f565b60405180910390fd5b600160009054906101000a900473ffffffffffffffffffffffffffffffffffffffff1673ffffffffffffffffffffffffffffffffffffffff1663a9059cbb33836040518363ffffffff1660e01b81526004016105079291906113b6565b602060405180830381600087803b15801561052157600080fd5b505af1158015610535573d6000803e3d6000fd5b505050506040513d601f19601f820116820180604052508101906105599190611136565b5080600460003373ffffffffffffffffffffffffffffffffffffffff1673ffffffffffffffffffffffffffffffffffffffff168152602001908152602001600020546105a59190611554565b600460003373ffffffffffffffffffffffffffffffffffffffff1673ffffffffffffffffffffffffffffffffffffffff1681526020019081526020016000208190555050565b6105f3610e6a565b73ffffffffffffffffffffffffffffffffffffffff16610611610733565b73ffffffffffffffffffffffffffffffffffffffff1614610667576040517f08c379a000000000000000000000000000000000000000000000000000000000815260040161065e9061145f565b60405180910390fd5b6106716000610e72565b565b61067b610e6a565b73ffffffffffffffffffffffffffffffffffffffff16610699610733565b73ffffffffffffffffffffffffffffffffffffffff16146106ef576040517f08c379a00000000000000000000000000000000000000000000000000000000081526004016106e69061145f565b60405180910390fd5b80600160006101000a81548173ffffffffffffffffffffffffffffffffffffffff021916908373ffffffffffffffffffffffffffffffffffffffff16021790555050565b60008060009054906101000a900473ffffffffffffffffffffffffffffffffffffffff16905090565b610764610e6a565b73ffffffffffffffffffffffffffffffffffffffff16610782610733565b73ffffffffffffffffffffffffffffffffffffffff16146107d8576040517f08c379a00000000000000000000000000000000000000000000000000000000081526004016107cf9061145f565b60405180910390fd5b8060028190555050565b6107ea610e6a565b73ffffffffffffffffffffffffffffffffffffffff16610808610733565b73ffffffffffffffffffffffffffffffffffffffff161461085e576040517f08c379a00000000000000000000000000000000000000000000000000000000081526004016108559061145f565b60405180910390fd5b60005b82518110156109cb578181815181106108a3577f4e487b7100000000000000000000000000000000000000000000000000000000600052603260045260246000fd5b6020026020010151600360008584815181106108e8577f4e487b7100000000000000000000000000000000000000000000000000000000600052603260045260246000fd5b602002602001015173ffffffffffffffffffffffffffffffffffffffff1673ffffffffffffffffffffffffffffffffffffffff168152602001908152602001600020546109359190611554565b60036000858481518110610972577f4e487b7100000000000000000000000000000000000000000000000000000000600052603260045260246000fd5b602002602001015173ffffffffffffffffffffffffffffffffffffffff1673ffffffffffffffffffffffffffffffffffffffff1681526020019081526020016000208190555080806109c3906116b1565b915050610861565b505050565b60025481565b60046020528060005260406000206000915090505481565b6109f6610e6a565b73ffffffffffffffffffffffffffffffffffffffff16610a14610733565b73ffffffffffffffffffffffffffffffffffffffff1614610a6a576040517f08c379a0000000000000000000000000000000000000000000000000000000008152600401610a619061145f565b60405180910390fd5b826005819055508160068190555080600781905550505050565b610a8c610e6a565b73ffffffffffffffffffffffffffffffffffffffff16610aaa610733565b73ffffffffffffffffffffffffffffffffffffffff1614610b00576040517f08c379a0000000000000000000000000000000000000000000000000000000008152600401610af79061145f565b60405180910390fd5b60004790503373ffffffffffffffffffffffffffffffffffffffff166108fc829081150290604051600060405180830381858888f19350505050158015610b4b573d6000803e3d6000fd5b5050565b60036020528060005260406000206000915090505481565b6000600654421015610b7c5760009050610d6f565b6000600360003373ffffffffffffffffffffffffffffffffffffffff1673ffffffffffffffffffffffffffffffffffffffff1681526020019081526020016000205411610bcc5760009050610d6f565b600460003373ffffffffffffffffffffffffffffffffffffffff1673ffffffffffffffffffffffffffffffffffffffff16815260200190815260200160002054600360003373ffffffffffffffffffffffffffffffffffffffff1673ffffffffffffffffffffffffffffffffffffffff1681526020019081526020016000205411610c5a5760009050610d6f565b600060065442610c6a9190611635565b9050600754811115610c7c5760075490505b60006005546064610c8d9190611635565b905060006007548383610ca091906115db565b610caa91906115aa565b905060055481610cba9190611554565b90506000606482600360003373ffffffffffffffffffffffffffffffffffffffff1673ffffffffffffffffffffffffffffffffffffffff16815260200190815260200160002054610d0b91906115db565b610d1591906115aa565b90506000600460003373ffffffffffffffffffffffffffffffffffffffff1673ffffffffffffffffffffffffffffffffffffffff1681526020019081526020016000205482610d649190611635565b905080955050505050505b90565b610d7a610e6a565b73ffffffffffffffffffffffffffffffffffffffff16610d98610733565b73ffffffffffffffffffffffffffffffffffffffff1614610dee576040517f08c379a0000000000000000000000000000000000000000000000000000000008152600401610de59061145f565b60405180910390fd5b600073ffffffffffffffffffffffffffffffffffffffff168173ffffffffffffffffffffffffffffffffffffffff161415610e5e576040517f08c379a0000000000000000000000000000000000000000000000000000000008152600401610e55906113ff565b60405180910390fd5b610e6781610e72565b50565b600033905090565b60008060009054906101000a900473ffffffffffffffffffffffffffffffffffffffff169050816000806101000a81548173ffffffffffffffffffffffffffffffffffffffff021916908373ffffffffffffffffffffffffffffffffffffffff1602179055508173ffffffffffffffffffffffffffffffffffffffff168173ffffffffffffffffffffffffffffffffffffffff167f8be0079c531659141344cd1fd0a4f28419497f9722a3daafe3b4186f6b6457e060405160405180910390a35050565b6000610f49610f44846114eb565b6114ba565b90508083825260208201905082856020860282011115610f6857600080fd5b60005b85811015610f985781610f7e888261100e565b845260208401935060208301925050600181019050610f6b565b5050509392505050565b6000610fb5610fb084611517565b6114ba565b90508083825260208201905082856020860282011115610fd457600080fd5b60005b858110156110045781610fea888261108c565b845260208401935060208301925050600181019050610fd7565b5050509392505050565b60008135905061101d81611787565b92915050565b600082601f83011261103457600080fd5b8135611044848260208601610f36565b91505092915050565b600082601f83011261105e57600080fd5b813561106e848260208601610fa2565b91505092915050565b6000815190506110868161179e565b92915050565b60008135905061109b816117b5565b92915050565b6000602082840312156110b357600080fd5b60006110c18482850161100e565b91505092915050565b600080604083850312156110dd57600080fd5b600083013567ffffffffffffffff8111156110f757600080fd5b61110385828601611023565b925050602083013567ffffffffffffffff81111561112057600080fd5b61112c8582860161104d565b9150509250929050565b60006020828403121561114857600080fd5b600061115684828501611077565b91505092915050565b60006020828403121561117157600080fd5b600061117f8482850161108c565b91505092915050565b60008060006060848603121561119d57600080fd5b60006111ab8682870161108c565b93505060206111bc8682870161108c565b92505060406111cd8682870161108c565b9150509250925092565b6111e081611669565b82525050565b60006111f3601583611543565b91507f436c61696d206e6f7420737461727465642079657400000000000000000000006000830152602082019050919050565b6000611233602683611543565b91507f4f776e61626c653a206e6577206f776e657220697320746865207a65726f206160008301527f64647265737300000000000000000000000000000000000000000000000000006020830152604082019050919050565b6000611299601783611543565b91507f596f7520616c726561647920636c61696d656420616c6c0000000000000000006000830152602082019050919050565b60006112d9601183611543565b91507f4e6f20746f6b656e20746f20636c61696d0000000000000000000000000000006000830152602082019050919050565b6000611319602083611543565b91507f4f776e61626c653a2063616c6c6572206973206e6f7420746865206f776e65726000830152602082019050919050565b6000611359601283611543565b91507f4e6f20746f6b656e2070757263616873656400000000000000000000000000006000830152602082019050919050565b611395816116a7565b82525050565b60006020820190506113b060008301846111d7565b92915050565b60006040820190506113cb60008301856111d7565b6113d8602083018461138c565b9392505050565b600060208201905081810360008301526113f8816111e6565b9050919050565b6000602082019050818103600083015261141881611226565b9050919050565b600060208201905081810360008301526114388161128c565b9050919050565b60006020820190508181036000830152611458816112cc565b9050919050565b600060208201905081810360008301526114788161130c565b9050919050565b600060208201905081810360008301526114988161134c565b9050919050565b60006020820190506114b4600083018461138c565b92915050565b6000604051905081810181811067ffffffffffffffff821117156114e1576114e0611758565b5b8060405250919050565b600067ffffffffffffffff82111561150657611505611758565b5b602082029050602081019050919050565b600067ffffffffffffffff82111561153257611531611758565b5b602082029050602081019050919050565b600082825260208201905092915050565b600061155f826116a7565b915061156a836116a7565b9250827fffffffffffffffffffffffffffffffffffffffffffffffffffffffffffffffff0382111561159f5761159e6116fa565b5b828201905092915050565b60006115b5826116a7565b91506115c0836116a7565b9250826115d0576115cf611729565b5b828204905092915050565b60006115e6826116a7565b91506115f1836116a7565b9250817fffffffffffffffffffffffffffffffffffffffffffffffffffffffffffffffff048311821515161561162a576116296116fa565b5b828202905092915050565b6000611640826116a7565b915061164b836116a7565b92508282101561165e5761165d6116fa565b5b828203905092915050565b600061167482611687565b9050919050565b60008115159050919050565b600073ffffffffffffffffffffffffffffffffffffffff82169050919050565b6000819050919050565b60006116bc826116a7565b91507fffffffffffffffffffffffffffffffffffffffffffffffffffffffffffffffff8214156116ef576116ee6116fa565b5b600182019050919050565b7f4e487b7100000000000000000000000000000000000000000000000000000000600052601160045260246000fd5b7f4e487b7100000000000000000000000000000000000000000000000000000000600052601260045260246000fd5b7f4e487b7100000000000000000000000000000000000000000000000000000000600052604160045260246000fd5b61179081611669565b811461179b57600080fd5b50565b6117a78161167b565b81146117b257600080fd5b50565b6117be816116a7565b81146117c957600080fd5b5056fea264697066735822122040b732c9a45ae1828bb9685da974792ac84291ab35368f97870d7411307fb10864736f6c63430008000033",
  "immutableReferences": {},
  "source": "// SPDX-License-Identifier: MIT\r\npragma solidity ^0.8.0;\r\n\r\nimport '@openzeppelin/contracts/token/ERC20/IERC20.sol';\r\nimport '@openzeppelin/contracts/access/Ownable.sol';\r\n\r\ncontract Seedsale is Ownable {\r\n\r\n    IERC20 kataToken;\r\n\r\n    uint256 public price = 1000;       // 1 ETH = 1000 $KATA\r\n\r\n    mapping(address => uint256) public buyTokens;\r\n    mapping(address => uint256) public claimedTokens;\r\n\r\n    uint256 public tgeAmount = 50;\r\n    uint256 public tgeTime;\r\n    uint256 public duration = 60 * 60 * 24 * 30 * 6;    // 6 months (180 days)\r\n\r\n    constructor(uint256 _tgeTime) {\r\n        tgeTime = _tgeTime;\r\n    }\r\n\r\n    function getClaimable() public view returns(uint256) {\r\n        if (block.timestamp < tgeTime) return 0;\r\n        if (buyTokens[msg.sender] <= 0) return 0;\r\n        if (buyTokens[msg.sender] <= claimedTokens[msg.sender]) return 0;\r\n\r\n        uint256 timeElapsed = block.timestamp - tgeTime;\r\n\r\n        if (timeElapsed > duration)\r\n            timeElapsed = duration;\r\n        \r\n        uint256 _tge = 100 - tgeAmount;\r\n        uint256 unlockedPercent = _tge * timeElapsed / duration;\r\n        unlockedPercent = unlockedPercent + tgeAmount;\r\n\r\n        uint256 unlockedAmount = buyTokens[msg.sender] * unlockedPercent / 100;\r\n\r\n        uint256 claimable = unlockedAmount - claimedTokens[msg.sender];\r\n\r\n        return claimable;\r\n    }\r\n    \r\n    function claim() external {\r\n        require(block.timestamp > tgeTime, \"Claim not started yet\");\r\n        require(buyTokens[msg.sender] > 0, \"No token purcahsed\");\r\n        require(buyTokens[msg.sender] > claimedTokens[msg.sender], \"You already claimed all\");\r\n\r\n        uint256 claimable = getClaimable();\r\n\r\n        require (claimable > 0, \"No token to claim\");\r\n\r\n        kataToken.transfer(msg.sender, claimable);\r\n\r\n        claimedTokens[msg.sender] = claimedTokens[msg.sender] + claimable;\r\n    }\r\n\r\n    function withdrawETH() external onlyOwner {\r\n        uint256 ethAmount = address(this).balance;\r\n        payable(msg.sender).transfer(ethAmount);\r\n    }\r\n\r\n    function setPrice(uint256 _price) external onlyOwner {\r\n        price = _price;\r\n    }\r\n\r\n    function setVesting(uint256 _tgeAmount, uint256 _tgeTime, uint256 _duration) external onlyOwner {\r\n        tgeAmount = _tgeAmount;\r\n        tgeTime = _tgeTime;\r\n        duration = _duration;\r\n    }\r\n\r\n    function setKataToken(address _kata) external onlyOwner {\r\n        kataToken = IERC20(_kata);\r\n    }\r\n\r\n    function registerMember(address[] memory addrs, uint256[] memory amount) external onlyOwner {\r\n        for (uint256 i = 0; i < addrs.length; i++){\r\n            buyTokens[addrs[i]] = buyTokens[addrs[i]] + amount[i];\r\n    }\r\n  }\r\n}",
  "sourcePath": "D:\\Work\\katana\\work\\kata-seedsale-contract\\contracts\\Seedsale.sol",
  "compiler": {
    "name": "solc",
    "version": "0.8.0+commit.c7dfd78e.Emscripten.clang"
  },
  "schemaVersion": "3.4.3",
  "updatedAt": "2021-12-15T12:23:55.631Z",
  "devdoc": {
    "kind": "dev",
    "methods": {
      "owner()": {
        "details": "Returns the address of the current owner."
      },
      "renounceOwnership()": {
        "details": "Leaves the contract without owner. It will not be possible to call `onlyOwner` functions anymore. Can only be called by the current owner. NOTE: Renouncing ownership will leave the contract without an owner, thereby removing any functionality that is only available to the owner."
      },
      "transferOwnership(address)": {
        "details": "Transfers ownership of the contract to a new account (`newOwner`). Can only be called by the current owner."
      }
    },
    "version": 1
  },
  "userdoc": {
    "kind": "user",
    "methods": {},
    "version": 1
  }
}